{
  "contractName": "LivretDeFamille",
  "abi": [
    {
      "inputs": [
        {
          "internalType": "string",
          "name": "_nomEpoux",
          "type": "string"
        },
        {
          "internalType": "string",
          "name": "_nomEpouse",
          "type": "string"
        },
        {
          "internalType": "uint256",
          "name": "_dateMariage",
          "type": "uint256"
        }
      ],
      "stateMutability": "nonpayable",
      "type": "constructor"
    },
    {
      "anonymous": false,
      "inputs": [
        {
          "indexed": false,
          "internalType": "address",
          "name": "enfant",
          "type": "address"
        }
      ],
      "name": "EnfantAjoute",
      "type": "event"
    },
    {
      "inputs": [],
      "name": "dateMariage",
      "outputs": [
        {
          "internalType": "uint256",
          "name": "",
          "type": "uint256"
        }
      ],
      "stateMutability": "view",
      "type": "function",
      "constant": true
    },
    {
      "inputs": [
        {
          "internalType": "uint256",
          "name": "",
          "type": "uint256"
        }
      ],
      "name": "enfants",
      "outputs": [
        {
          "internalType": "address",
          "name": "",
          "type": "address"
        }
      ],
      "stateMutability": "view",
      "type": "function",
      "constant": true
    },
    {
      "inputs": [
        {
          "internalType": "address",
          "name": "",
          "type": "address"
        }
      ],
      "name": "estEnfant",
      "outputs": [
        {
          "internalType": "bool",
          "name": "",
          "type": "bool"
        }
      ],
      "stateMutability": "view",
      "type": "function",
      "constant": true
    },
    {
      "inputs": [],
      "name": "nomEpouse",
      "outputs": [
        {
          "internalType": "string",
          "name": "",
          "type": "string"
        }
      ],
      "stateMutability": "view",
      "type": "function",
      "constant": true
    },
    {
      "inputs": [],
      "name": "nomEpoux",
      "outputs": [
        {
          "internalType": "string",
          "name": "",
          "type": "string"
        }
      ],
      "stateMutability": "view",
      "type": "function",
      "constant": true
    },
    {
      "inputs": [],
      "name": "owner",
      "outputs": [
        {
          "internalType": "address",
          "name": "",
          "type": "address"
        }
      ],
      "stateMutability": "view",
      "type": "function",
      "constant": true
    },
    {
      "inputs": [
        {
          "internalType": "string",
          "name": "_nomEpoux",
          "type": "string"
        },
        {
          "internalType": "string",
          "name": "_nomEpouse",
          "type": "string"
        },
        {
          "internalType": "uint256",
          "name": "_dateMariage",
          "type": "uint256"
        }
      ],
      "name": "creerLivretFamille",
      "outputs": [],
      "stateMutability": "nonpayable",
      "type": "function"
    },
    {
      "inputs": [
        {
          "internalType": "address",
          "name": "_adresseEnfant",
          "type": "address"
        }
      ],
      "name": "ajouterEnfant",
      "outputs": [],
      "stateMutability": "nonpayable",
      "type": "function"
    },
    {
      "inputs": [],
      "name": "divorcer",
      "outputs": [],
      "stateMutability": "nonpayable",
      "type": "function"
    },
    {
      "inputs": [],
      "name": "deces",
      "outputs": [],
      "stateMutability": "nonpayable",
      "type": "function"
    },
    {
      "inputs": [],
      "name": "obtenirInformations",
      "outputs": [
        {
          "internalType": "string",
          "name": "",
          "type": "string"
        },
        {
          "internalType": "string",
          "name": "",
          "type": "string"
        },
        {
          "internalType": "uint256",
          "name": "",
          "type": "uint256"
        },
        {
          "internalType": "address[]",
          "name": "",
          "type": "address[]"
        }
      ],
      "stateMutability": "view",
      "type": "function",
      "constant": true
    }
  ],
  "bytecode": "0x60806040523480156200001157600080fd5b506040516200176238038062001762833981810160405281019062000037919062000279565b336000806101000a81548173ffffffffffffffffffffffffffffffffffffffff021916908373ffffffffffffffffffffffffffffffffffffffff160217905550826001908162000088919062000554565b5081600290816200009a919062000554565b50806003819055505050506200063b565b6000604051905090565b600080fd5b600080fd5b600080fd5b600080fd5b6000601f19601f8301169050919050565b7f4e487b7100000000000000000000000000000000000000000000000000000000600052604160045260246000fd5b6200011482620000c9565b810181811067ffffffffffffffff82111715620001365762000135620000da565b5b80604052505050565b60006200014b620000ab565b905062000159828262000109565b919050565b600067ffffffffffffffff8211156200017c576200017b620000da565b5b6200018782620000c9565b9050602081019050919050565b60005b83811015620001b457808201518184015260208101905062000197565b60008484015250505050565b6000620001d7620001d1846200015e565b6200013f565b905082815260208101848484011115620001f657620001f5620000c4565b5b6200020384828562000194565b509392505050565b600082601f830112620002235762000222620000bf565b5b815162000235848260208601620001c0565b91505092915050565b6000819050919050565b62000253816200023e565b81146200025f57600080fd5b50565b600081519050620002738162000248565b92915050565b600080600060608486031215620002955762000294620000b5565b5b600084015167ffffffffffffffff811115620002b657620002b5620000ba565b5b620002c4868287016200020b565b935050602084015167ffffffffffffffff811115620002e857620002e7620000ba565b5b620002f6868287016200020b565b9250506040620003098682870162000262565b9150509250925092565b600081519050919050565b7f4e487b7100000000000000000000000000000000000000000000000000000000600052602260045260246000fd5b600060028204905060018216806200036657607f821691505b6020821081036200037c576200037b6200031e565b5b50919050565b60008190508160005260206000209050919050565b60006020601f8301049050919050565b600082821b905092915050565b600060088302620003e67fffffffffffffffffffffffffffffffffffffffffffffffffffffffffffffffff82620003a7565b620003f28683620003a7565b95508019841693508086168417925050509392505050565b6000819050919050565b6000620004356200042f62000429846200023e565b6200040a565b6200023e565b9050919050565b6000819050919050565b620004518362000414565b6200046962000460826200043c565b848454620003b4565b825550505050565b600090565b6200048062000471565b6200048d81848462000446565b505050565b5b81811015620004b557620004a960008262000476565b60018101905062000493565b5050565b601f8211156200050457620004ce8162000382565b620004d98462000397565b81016020851015620004e9578190505b62000501620004f88562000397565b83018262000492565b50505b505050565b600082821c905092915050565b6000620005296000198460080262000509565b1980831691505092915050565b600062000544838362000516565b9150826002028217905092915050565b6200055f8262000313565b67ffffffffffffffff8111156200057b576200057a620000da565b5b6200058782546200034d565b62000594828285620004b9565b600060209050601f831160018114620005cc5760008415620005b7578287015190505b620005c3858262000536565b86555062000633565b601f198416620005dc8662000382565b60005b828110156200060657848901518255600182019150602085019450602081019050620005df565b8683101562000626578489015162000622601f89168262000516565b8355505b6001600288020188555050505b505050505050565b611117806200064b6000396000f3fe608060405234801561001057600080fd5b50600436106100a95760003560e01c80638da5cb5b116100715780638da5cb5b14610167578063b567c24f14610185578063c8457015146101a3578063cf7d3fb1146101ad578063d139ff8c146101b7578063e288f6eb146101d5576100a9565b80632f442468146100ae5780633f72e520146100de5780634143c784146100ff57806351dc08941461012f5780638733e82c1461014b575b600080fd5b6100c860048036038101906100c39190610937565b6101f3565b6040516100d591906109a5565b60405180910390f35b6100e6610232565b6040516100f69493929190610b1d565b60405180910390f35b61011960048036038101906101149190610ba3565b6103f0565b6040516101269190610beb565b60405180910390f35b61014960048036038101906101449190610ba3565b610410565b005b61016560048036038101906101609190610d3b565b610592565b005b61016f610616565b60405161017c91906109a5565b60405180910390f35b61018d61063a565b60405161019a9190610dc6565b60405180910390f35b6101ab6106c8565b005b6101b5610768565b005b6101bf610859565b6040516101cc9190610de8565b60405180910390f35b6101dd61085f565b6040516101ea9190610dc6565b60405180910390f35b6004818154811061020357600080fd5b906000526020600020016000915054906101000a900473ffffffffffffffffffffffffffffffffffffffff1681565b6060806000606060016002600354600483805461024e90610e32565b80601f016020809104026020016040519081016040528092919081815260200182805461027a90610e32565b80156102c75780601f1061029c576101008083540402835291602001916102c7565b820191906000526020600020905b8154815290600101906020018083116102aa57829003601f168201915b505050505093508280546102da90610e32565b80601f016020809104026020016040519081016040528092919081815260200182805461030690610e32565b80156103535780601f1061032857610100808354040283529160200191610353565b820191906000526020600020905b81548152906001019060200180831161033657829003601f168201915b50505050509250808054806020026020016040519081016040528092919081815260200182805480156103db57602002820191906000526020600020905b8160009054906101000a900473ffffffffffffffffffffffffffffffffffffffff1673ffffffffffffffffffffffffffffffffffffffff1681526020019060010190808311610391575b50505050509050935093509350935090919293565b60056020528060005260406000206000915054906101000a900460ff1681565b60008054906101000a900473ffffffffffffffffffffffffffffffffffffffff1673ffffffffffffffffffffffffffffffffffffffff163373ffffffffffffffffffffffffffffffffffffffff161461046857600080fd5b60006001805461047790610e32565b9050118015610494575060006002805461049090610e32565b9050115b61049d57600080fd5b6004819080600181540180825580915050600190039060005260206000200160009091909190916101000a81548173ffffffffffffffffffffffffffffffffffffffff021916908373ffffffffffffffffffffffffffffffffffffffff1602179055506001600560008373ffffffffffffffffffffffffffffffffffffffff1673ffffffffffffffffffffffffffffffffffffffff16815260200190815260200160002060006101000a81548160ff0219169083151502179055507f896aa84e8de7484ffe85a75187260b33f93406c701f36c4d23e30f4d7c050dbf8160405161058791906109a5565b60405180910390a150565b60008054906101000a900473ffffffffffffffffffffffffffffffffffffffff1673ffffffffffffffffffffffffffffffffffffffff163373ffffffffffffffffffffffffffffffffffffffff16146105ea57600080fd5b82600190816105f9919061100f565b508160029081610609919061100f565b5080600381905550505050565b60008054906101000a900473ffffffffffffffffffffffffffffffffffffffff1681565b6001805461064790610e32565b80601f016020809104026020016040519081016040528092919081815260200182805461067390610e32565b80156106c05780601f10610695576101008083540402835291602001916106c0565b820191906000526020600020905b8154815290600101906020018083116106a357829003601f168201915b505050505081565b60008054906101000a900473ffffffffffffffffffffffffffffffffffffffff1673ffffffffffffffffffffffffffffffffffffffff163373ffffffffffffffffffffffffffffffffffffffff161461072057600080fd5b604051806020016040528060008152506001908161073e919061100f565b50604051806020016040528060008152506002908161075d919061100f565b506000600381905550565b60008054906101000a900473ffffffffffffffffffffffffffffffffffffffff1673ffffffffffffffffffffffffffffffffffffffff163373ffffffffffffffffffffffffffffffffffffffff16146107c057600080fd5b60008054906101000a900473ffffffffffffffffffffffffffffffffffffffff1673ffffffffffffffffffffffffffffffffffffffff163373ffffffffffffffffffffffffffffffffffffffff1603610837576040518060200160405280600081525060019081610831919061100f565b50610857565b6040518060200160405280600081525060029081610855919061100f565b505b565b60035481565b6002805461086c90610e32565b80601f016020809104026020016040519081016040528092919081815260200182805461089890610e32565b80156108e55780601f106108ba576101008083540402835291602001916108e5565b820191906000526020600020905b8154815290600101906020018083116108c857829003601f168201915b505050505081565b6000604051905090565b600080fd5b600080fd5b6000819050919050565b61091481610901565b811461091f57600080fd5b50565b6000813590506109318161090b565b92915050565b60006020828403121561094d5761094c6108f7565b5b600061095b84828501610922565b91505092915050565b600073ffffffffffffffffffffffffffffffffffffffff82169050919050565b600061098f82610964565b9050919050565b61099f81610984565b82525050565b60006020820190506109ba6000830184610996565b92915050565b600081519050919050565b600082825260208201905092915050565b60005b838110156109fa5780820151818401526020810190506109df565b60008484015250505050565b6000601f19601f8301169050919050565b6000610a22826109c0565b610a2c81856109cb565b9350610a3c8185602086016109dc565b610a4581610a06565b840191505092915050565b610a5981610901565b82525050565b600081519050919050565b600082825260208201905092915050565b6000819050602082019050919050565b610a9481610984565b82525050565b6000610aa68383610a8b565b60208301905092915050565b6000602082019050919050565b6000610aca82610a5f565b610ad48185610a6a565b9350610adf83610a7b565b8060005b83811015610b10578151610af78882610a9a565b9750610b0283610ab2565b925050600181019050610ae3565b5085935050505092915050565b60006080820190508181036000830152610b378187610a17565b90508181036020830152610b4b8186610a17565b9050610b5a6040830185610a50565b8181036060830152610b6c8184610abf565b905095945050505050565b610b8081610984565b8114610b8b57600080fd5b50565b600081359050610b9d81610b77565b92915050565b600060208284031215610bb957610bb86108f7565b5b6000610bc784828501610b8e565b91505092915050565b60008115159050919050565b610be581610bd0565b82525050565b6000602082019050610c006000830184610bdc565b92915050565b600080fd5b600080fd5b7f4e487b7100000000000000000000000000000000000000000000000000000000600052604160045260246000fd5b610c4882610a06565b810181811067ffffffffffffffff82111715610c6757610c66610c10565b5b80604052505050565b6000610c7a6108ed565b9050610c868282610c3f565b919050565b600067ffffffffffffffff821115610ca657610ca5610c10565b5b610caf82610a06565b9050602081019050919050565b82818337600083830152505050565b6000610cde610cd984610c8b565b610c70565b905082815260208101848484011115610cfa57610cf9610c0b565b5b610d05848285610cbc565b509392505050565b600082601f830112610d2257610d21610c06565b5b8135610d32848260208601610ccb565b91505092915050565b600080600060608486031215610d5457610d536108f7565b5b600084013567ffffffffffffffff811115610d7257610d716108fc565b5b610d7e86828701610d0d565b935050602084013567ffffffffffffffff811115610d9f57610d9e6108fc565b5b610dab86828701610d0d565b9250506040610dbc86828701610922565b9150509250925092565b60006020820190508181036000830152610de08184610a17565b905092915050565b6000602082019050610dfd6000830184610a50565b92915050565b7f4e487b7100000000000000000000000000000000000000000000000000000000600052602260045260246000fd5b60006002820490506001821680610e4a57607f821691505b602082108103610e5d57610e5c610e03565b5b50919050565b60008190508160005260206000209050919050565b60006020601f8301049050919050565b600082821b905092915050565b600060088302610ec57fffffffffffffffffffffffffffffffffffffffffffffffffffffffffffffffff82610e88565b610ecf8683610e88565b95508019841693508086168417925050509392505050565b6000819050919050565b6000610f0c610f07610f0284610901565b610ee7565b610901565b9050919050565b6000819050919050565b610f2683610ef1565b610f3a610f3282610f13565b848454610e95565b825550505050565b600090565b610f4f610f42565b610f5a818484610f1d565b505050565b5b81811015610f7e57610f73600082610f47565b600181019050610f60565b5050565b601f821115610fc357610f9481610e63565b610f9d84610e78565b81016020851015610fac578190505b610fc0610fb885610e78565b830182610f5f565b50505b505050565b600082821c905092915050565b6000610fe660001984600802610fc8565b1980831691505092915050565b6000610fff8383610fd5565b9150826002028217905092915050565b611018826109c0565b67ffffffffffffffff81111561103157611030610c10565b5b61103b8254610e32565b611046828285610f82565b600060209050601f8311600181146110795760008415611067578287015190505b6110718582610ff3565b8655506110d9565b601f19841661108786610e63565b60005b828110156110af5784890151825560018201915060208501945060208101905061108a565b868310156110cc57848901516110c8601f891682610fd5565b8355505b6001600288020188555050505b50505050505056fea26469706673582212209f56ce4865b122037783a5be9d3cc98d60167c9b9d98c20c2aec1d1bfe4ffded64736f6c63430008120033",
  "immutableReferences": {},
  "source": "// SPDX-License-Identifier: MIT\r\npragma solidity ^0.8.0;\r\n\r\ncontract LivretDeFamille {\r\n    address public owner;\r\n    string public nomEpoux;\r\n    string public nomEpouse;\r\n    uint256 public dateMariage;\r\n    address[] public enfants;\r\n    mapping(address => bool) public estEnfant;\r\n    event EnfantAjoute(address enfant);\r\n\r\n    modifier onlyOwner() {\r\n        require(msg.sender == owner);\r\n        _;\r\n    }\r\n\r\n    modifier onlyMarried() {\r\n        require(bytes(nomEpoux).length > 0 && bytes(nomEpouse).length > 0);\r\n        _;\r\n    }\r\n\r\n    constructor(string memory _nomEpoux, string memory _nomEpouse , uint256 _dateMariage) {\r\n        owner = msg.sender;\r\n        nomEpoux = _nomEpoux;\r\n        nomEpouse = _nomEpouse;\r\n        dateMariage = _dateMariage;\r\n    }\r\n\r\n    function creerLivretFamille(string memory _nomEpoux, string memory _nomEpouse, uint256 _dateMariage) public onlyOwner {\r\n        nomEpoux = _nomEpoux;\r\n        nomEpouse = _nomEpouse;\r\n        dateMariage = _dateMariage;\r\n    }\r\n\r\n    function ajouterEnfant(address _adresseEnfant) public onlyOwner onlyMarried {\r\n        enfants.push(_adresseEnfant);\r\n        estEnfant[_adresseEnfant] = true;\r\n        emit EnfantAjoute(_adresseEnfant);\r\n    }\r\n\r\n    function divorcer() public onlyOwner {\r\n        nomEpoux = \"\";\r\n        nomEpouse = \"\";\r\n        dateMariage = 0;\r\n    }\r\n\r\n    function deces() public onlyOwner {\r\n        if (msg.sender == owner) {\r\n            nomEpoux = \"\";\r\n        } else {\r\n            nomEpouse = \"\";\r\n        }\r\n    }\r\n\r\n    function obtenirInformations() public view returns (string memory, string memory, uint256, address[] memory) {\r\n        return (nomEpoux, nomEpouse, dateMariage, enfants);\r\n    }\r\n}",
  "sourcePath": "C:\\Users\\cedric\\Truffle-React\\truffle\\contracts\\LivretDeFamille.sol",
  "compiler": {
    "name": "solc",
    "version": "0.8.18+commit.87f61d96.Emscripten.clang"
  },
  "schemaVersion": "3.4.16",
  "updatedAt": "2023-11-15T19:49:32.727Z",
  "networkType": "ethereum",
  "devdoc": {
    "kind": "dev",
    "methods": {},
    "version": 1
  },
  "userdoc": {
    "kind": "user",
    "methods": {},
    "version": 1
  }
}